:020000040800F2
:10000000201100202D920008319000083390000844
:100010003590000837900008399000080000000073
:100020000000000000000000000000003B900008FD
:100030003D900008000000003F900008419000083B
:10004000499200084D92000851920008559200080C
:10005000599200085D9200086192000865920008BC
:10006000699200086D92000871920008759200086C
:10007000799200084F9000087D9200088192000854
:1000800085920008899200088D92000891920008DC
:100090005590000895920008999200089D920008DA
:1000A000A1920008A5920008A9920008AD9200084C
:1000B0005B900008B1920008B5920008B992000860
:1000C000BD920008C1920008C5920008C9920008BC
:1000D000CD920008D1920008D5920008D99200086C
:1000E000DD920008E1920008E5920008021000008D
:1000F0000000000000000000000000000000000000
:1001000000000000000000000000000000000210DD
:1001100000000000000000000000000000000000DF
:1001200000000000000000000000000000000000CF
:1001300002100000000000000000000000000000AD
:1001400000000000000000000000000000000000AF
:10015000000002100000000000000000000000008D
:10016000000000000000000000000000000000008F
:10017000000000000210000000000000000000006D
:10018000000000000000000000000000000000006F
:10019000000000000000021000000000000000004D
:1001A000000000000000000000000000000000004F
:1001B000000000000000000002100000000000002D
:1001C000000000000000000000000000000000002F
:1001D000000000000000000000000210000000000D
:1001E000000000000000000000000000000000000F
:1001F00000000000000000000000000002100000ED
:1002000000000000000000000000000000000000EE
:1002100000000000000000000000000000000210CC
:1002200000000000000000000000000000000000CE
:1002300000000000000000000000000000000000BE
:10024000021000000000000000000000000000009C
:10025000000000000000000000000000000000009E
:10026000000002100000000000000000000000007C
:10027000000000000000000000000000000000007E
:10028000000000000210000000000000000000005C
:10029000000000000000000000000000000000005E
:1002A000000000000000021000000000000000003C
:1002B000000000000000000000000000000000003E
:1002C000000000000000000002100000000000001C
:1002D000000000000000000000000000000000001E
:1002E00000000000000000000000021000000000FC
:1002F00000000000000000000000000000000000FE
:1003000000000000000000000000000002100000DB
:1003100000000000000000000000000000000000DD
:1003200000000000000000000000000000000210BB
:1003300000000000000000000000000000000000BD
:1003400000000000000000000000000000000000AD
:10035000021000000000000000000000000000008B
:10036000000000000000000000000000000000008D
:10037000000002100000000000000000000000006B
:10038000000000000000000000000000000000006D
:10039000000000000210000000000000000000004B
:1003A000000000000000000000000000000000004D
:1003B000000000000000021000000000000000002B
:1003C000000000000000000000000000000000002D
:1003D000000000000000000002100000000000000B
:1003E000000000000000000000000000000000000D
:1003F00000000000000000000000021000000000EB
:1004000000000000000000000000000000000000EC
:1004100000000000000000000000000002100000CA
:1004200000000000000000000000000000000000CC
:1004300000000000000000000000000000000210AA
:1004400000000000000000000000000000000000AC
:10045000000000000000000000000000000000009C
:10046000021000000000000000000000000000007A
:10047000000000000000000000000000000000007C
:10048000000002100000000000000000000000005A
:10049000000000000000000000000000000000005C
:1004A000000000000210000000000000000000003A
:1004B000000000000000000000000000000000003C
:1004C000000000000000021000000000000000001A
:1004D000000000000000000000000000000000001C
:1004E00000000000000000000210000000000000FA
:1004F00000000000000000000000000000000000FC
:1005000000000000000000000000021000000000D9
:1005100000000000000000000000000000000000DB
:1005200000000000000000000000000008100000B3
:1005300000000000000000000000000000000000BB
:100540000000000000000000000000000000031098
:1005500000000000C000C000C000C000C000C0001B
:10056000C000C000C0000000C000C00000000000CB
:10057000071000000000CC00CC00CC00CC00000034
:10058000000000000000000000000000000000006B
:100590000000081000000000360036003600FE00A3
:1005A000FE006C006C00FE00FE00D800D8000000C9
:1005B0000000000008100000100038007C00D60089
:1005C000D000F00078003C001E00D600D6007C0071
:1005D0003800100000001010000000007830CC60DF
:1005E000CC60CCC0CD807980033C0366066606668D
:1005F0000C66183C000000000C10000000003E00DB
:100600007F00630063003E003C006C80CEC0C7806A
:10061000C3C07FE03C400000000003100000000069
:10062000C000C000C000C0000000000000000000CA
:100630000000000000000000000000000510300075
:10064000600060006000C000C000C000C000C000CA
:10065000C000C000600060006000300000000510B5
:10066000C0006000600060003000300030003000EA
:10067000300030003000600060006000C00000000A
:100680000810000054003800FE003800540000003C
:10069000000000000000000000000000000000005A
:1006A0000000091000000000180018001800FF00EA
:1006B000FF001800180018000000000000000000F3
:1006C0000000000003100000000000000000000017
:1006D000000000000000000000000000C000C0009A
:1006E00040004000800006100000000000000000F4
:1006F000000000000000F800F8000000000000000A
:1007000000000000000000000310000000000000D6
:1007100000000000000000000000000000000000D9
:10072000C000C00000000000000005100000000034
:100730003000300030006000600060006000600049
:10074000C000C000C0000000000000000910000050
:1007500000003C007E00E700C300C300C300C300EC
:10076000C300C300E7007E003C000000000006104C
:1007700000000000180038007800D8009800180029
:1007800018001800180018001800180000000000D9
:100790000910000000003C007E00E300C3000300DD
:1007A00006000E001C0038006000FF00FF00000083
:1007B00000000910000000003E007F00C30003009D
:1007C0001E001E0007000300C300E7007E003C007F
:1007D0000000000009100000000006000E000E00DE
:1007E0001E00360036006600C600FF00FF0006004F
:1007F0000600000000000910000000007E007E00DE
:100800006000E000FC00FE00C7000300C300E7003A
:100810007E003C00000000000910000000003E00C7
:100820007F006300C000DC00FE00E700C300C300DF
:1008300063007E003C000000000009100000000082
:10084000FF00FF0006000C000C0018001800180044
:1008500038003000300030000000000009100000B7
:1008600000003C007E00C300C300C3007E007E0089
:10087000C300C300C3007E003C000000000009105C
:10088000000000003C007E00C600C300C300E7007B
:100890007F003B000300C600FE007C00000000005B
:1008A00003100000000000000000C000C0000000B5
:1008B000000000000000C000C000000000000000B8
:1008C000000003100000000000000000C000C00095
:1008D0000000000000000000C000C0004000400018
:1008E0008000000009100000000000000100070067
:1008F0001E007800E00078001E00070001000000E4
:1009000000000000000008100000000000000000CF
:100910000000FE00FE0000000000FE00FE000000DF
:1009200000000000000000000910000000000000AE
:100930008000E00078001E0007001E007800E00044
:10094000800000000000000000000910000000000E
:100950003C007E00E300C30007000E001C001800EE
:10096000180000001800180000000000101007E038
:100970001FF8381C73BC6FF6EC76D866D866D8665C
:10098000D8ECDFF86F707006381C1FF807E00C1009
:10099000000000000E000E001B001B001B00318039
:1009A00031803F807FC060C060C0C0600000000038
:1009B0000B1000000000FF00FF80C180C180C180DB
:1009C000FF00FF80C1C0C0C0C0C0FF80FF000000AA
:1009D00000000B10000000001F007F8061C0C0807D
:1009E000C000C000C000C000C08061C07F801F0088
:1009F000000000000B1000000000FE00FF80C1801E
:100A0000C0C0C0C0C0C0C0C0C0C0C0C0C180FF8026
:100A1000FE00000000000A1000000000FF80FF80C0
:100A2000C000C000C000FF80FF80C000C000C00048
:100A3000FF80FF8000000000091000000000FF00A0
:100A4000FF00C000C000C000FE00FE00C000C000EB
:100A5000C000C000C000000000000B10000000003B
:100A60001F007F8061C0C080C000C000C7C0C7C079
:100A7000C0C061C07F801F00000000000A1000009D
:100A80000000C180C180C180C180C180FF80FF8023
:100A9000C180C180C180C180C180000000000310FE
:100AA00000000000C000C000C000C000C000C000C6
:100AB000C000C000C000C000C000C00000000000B6
:100AC00009100000000003000300030003000300FE
:100AD000030003000300C300E7007E003C000000A9
:100AE00000000B1000000000C0C0C180C300C600A1
:100AF000CC00DE00F600E300C300C180C1C0C0C06E
:100B000000000000091000000000C000C000C0008C
:100B1000C000C000C000C000C000C000C000FF0096
:100B2000FF00000000000C1000000000E0E0E0E02A
:100B3000F1E0F1E0D160DB60DB60DB60CE60CE60D5
:100B4000CE60C460000000000B1000000000C0C0B8
:100B5000E0C0F0C0F0C0D8C0CCC0CCC0C6C0C3C0DC
:100B6000C3C0C1C0C0C0000000000B1000000000E6
:100B70001E007F806180C0C0C0C0C0C0C0C0C0C0F7
:100B8000C0C061807F801E00000000000A100000CD
:100B90000000FE00FF00C380C180C380FF00FE0094
:100BA000C000C000C000C000C000000000000B106A
:100BB000000000001E007F806180C0C0C0C0C0C0B7
:100BC000C0C0C0C0CCC067807F801D8000C0000056
:100BD0000C1000000000FF00FF80C1C0C0C0C1C0F9
:100BE000FF80FE00C700C380C180C1C0C0E000001C
:100BF00000000A10000000003E007F00C380C1809A
:100C0000F0007E001F000380C180E3807F003E0073
:100C1000000000000B1000000000FFC0FFC00C002F
:100C20000C000C000C000C000C000C000C000C0064
:100C30000C00000000000B1000000000C0C0C0C08D
:100C4000C0C0C0C0C0C0C0C0C0C0C0C0C0C0E1C083
:100C50007F803F00000000000C1000000000C0601A
:100C6000C06060C060C03180318031801B001B00DB
:100C70000E000E000E00000000001010000000002A
:100C8000C386E386638C66CC66CC36D836D836D835
:100C90001C781C701C701C70000000000A10000002
:100CA0000000C180E380630036003E001C001C0091
:100CB0003E0036006300E380C180000000000B109E
:100CC00000000000C0C0E1C06180330033001E009E
:100CD0000C000C000C000C000C000C0000000000CC
:100CE0000A10000000007F807F80030006000E00D5
:100CF0000C001800380030006000FF80FF8000000A
:100D0000000005100000F000F000C000C000C000AE
:100D1000C000C000C000C000C000C000C000F000A3
:100D2000F0000000051000000000C000C000C0007E
:100D30006000600060006000600060003000300013
:100D400030000000000005100000F000F00030004E
:100D50003000300030003000300030003000300013
:100D60003000F000F0000000091000000000180042
:100D70003C003C0066006600C3000000000000006C
:100D8000000000000000000000000910000000004A
:100D90000000000000000000000000000000000053
:100DA000000000000000FF00FF0000000410000031
:100DB000C000600000000000000000000000000013
:100DC000000000000000000000000000000009100A
:100DD000000000000000000000007C00FE00C600D3
:100DE0001E007E00E600C600FE007B000000000042
:100DF000091000000000C000C000C000DC00FE00C0
:100E0000E700C300C300C300E700FE00DC000000F1
:100E100000000810000000000000000000003C007E
:100E20007E00E600C000C000C000E6007E003C007E
:100E30000000000009100000000003000300030090
:100E40003B007F00E700C300C300C300E7007F0052
:100E50003B0000000000081000000000000000003F
:100E6000000038007C00C600FE00FE00C000E60066
:100E70007C003800000000000710000000003C006B
:100E80007C006000F800F800600060006000600016
:100E90006000600060000000000009100000000019
:100EA000000000003B007F00E700C300C300C30058
:100EB000E7007F003B00C300FF007E000910000038
:100EC0000000C000C000C000DE00FF00E300C3005F
:100ED000C300C300C300C300C30000000000031030
:100EE00000000000C000C0000000C000C000C00042
:100EF000C000C000C000C000C000C0000000000072
:100F0000041000000000600060000000600060004D
:100F10006000600060006000600060006000E00051
:100F2000C000081000000000C000C000C000C600E3
:100F3000CC00D800F800F800EC00CC00C600C600D9
:100F400000000000031000000000C000C000C0004E
:100F5000C000C000C000C000C000C000C000C00091
:100F6000C000000000000D100000000000000000A4
:100F70000000DCE0FFF0E730C630C630C630C630D7
:100F8000C630C6300000000009100000000000005C
:100F900000000000DE00FF00E300C300C300C30048
:100FA000C300C300C30000000000091000000000DF
:100FB0000000000000003C007E00E700C300C3000A
:100FC000C300E7007E003C000000000009100000A4
:100FD0000000000000000000DE00FF00E300C3008E
:100FE000C300C300E700FE00DC00C000C000091021
:100FF00000000000000000003B007F00E700C3008D
:10100000C300C300E7007F003B00030003000300B0
:10101000061000000000000000000000D800F800EA
:10102000E000C000C000C000C000C000C000000060
:1010300000000810000000000000000000007C001C
:10104000FE00C600F0007C001E00C600FE007C0012
:10105000000000000610000000002000600060009A
:10106000F800F80060006000600060006000780038
:10107000380000000000091000000000000000001F
:101080000000C300C300C300C300C300C300C70007
:10109000FF007B00000000000810000000000000BE
:1010A00000000000C600C600C6006C006C006C00AA
:1010B000380038003800000000000E10000000006A
:1010C000000000000000C718C71867306DB06DB091
:1010D0006DB038E038E038E0000000000810000093
:1010E0000000000000000000C600EE006C003800A8
:1010F000380038006C00EE00C600000000000A1046
:1011000000000000000000000000C18063006300D8
:10111000360036003E001C001C00180078007000ED
:10112000081000000000000000000000FE00FE00AB
:101130000C001C00380070006000FE00FE00000083
:101140000000071000001C003C00300030003000A0
:101150003000E000E00030003000300030003C00A3
:101160001C00000003100000C000C000C000C00050
:10117000C000C000C000C000C000C000C000C0006F
:10118000C000C000000007100000E000F0003000C8
:101190003000300030001C001C00300030003000F7
:1011A0003000F000E00000000910000000007100B5
:1011B000FF008E00000000000000000000000000A2
:1011C000000000000000000000000110000000000E
:1011D000000000000000000000000000000000000F
:1011E00000000000000000000000000001100000EE
:1011F00000000000000000000000000000000000EF
:1012000000000000000000000000000000000110CD
:1012100000000000000000000000000000000000CE
:1012200000000000000000000000000000000000BE
:10123000011000000000000000000000000000009D
:10124000000000000000000000000000000000009E
:10125000000001100000000000000000000000007D
:10126000000000000000000000000000000000007E
:10127000000000000110000000000000000000005D
:10128000000000000000000000000000000000005E
:10129000000000000000011000000000000000003D
:1012A000000000000000000000000000000000003E
:1012B000000000000000000001100000000000001D
:1012C000000000000000000000000000000000001E
:1012D00000000000000000000000011000000000FD
:1012E00000000000000000000000000000000000FE
:1012F00000000000000000000000000001100000DD
:1013000000000000000000000000000000000000DD
:1013100000000000000000000000000000000110BC
:1013200000000000000000000000000000000000BD
:1013300000000000000000000000000000000000AD
:10134000011000000000000000000000000000008C
:10135000000000000000000000000000000000008D
:10136000000001100000000000000000000000006C
:10137000000000000000000000000000000000006D
:10138000000000000110000000000000000000004C
:10139000000000000000000000000000000000004D
:1013A000000000000000011000000000000000002C
:1013B000000000000000000000000000000000002D
:1013C000000000000000000001100000000000000C
:1013D000000000000000000000000000000000000D
:1013E00000000000000000000000011000000000EC
:1013F00000000000000000000000000000000000ED
:1014000000000000000000000000000001100000CB
:1014100000000000000000000000000000000000CC
:1014200000000000000000000000000000000110AB
:1014300000000000000000000000000000000000AC
:10144000000000000000000000000000000000009C
:10145000011000000000000000000000000000007B
:10146000000000000000000000000000000000007C
:10147000000001100000000000000000000000005B
:10148000000000000000000000000000000000005C
:10149000000000000110000000000000000000003B
:1014A000000000000000000000000000000000003C
:1014B000000000000000011000000000000000001B
:1014C000000000000000000000000000000000001C
:1014D00000000000000000000110000000000000FB
:1014E00000000000000000000000000000000000FC
:1014F00000000000000000000000011000000000DB
:1015000000000000000000000000000000000000DB
:1015100000000000000000000000000001100000BA
:1015200000000000000000000000000000000000BB
:10153000000000000000000000000000000001109A
:10154000000000000000000000000000000000009B
:10155000000000000000000000000000000000008B
:10156000011000000000000000000000000000006A
:10157000000000000000000000000000000000006B
:10158000000001100000000000000000000000004A
:10159000000000000000000000000000000000004B
:1015A000000000000110000000000000000000002A
:1015B000000000000000000000000000000000002B
:1015C000000000000000011000000000000000000A
:1015D000000000000000000000000000000000000B
:1015E00000000000000000000110000000000000EA
:1015F00000000000000000000000000000000000EB
:1016000000000000000000000000011000000000C9
:1016100000000000000000000000000000000000CA
:1016200000000000000000000000000001100000A9
:1016300000000000000000000000000000000000AA
:101640000000000000000000000000000000011089
:10165000000000000000000000000000000000008A
:10166000000000000000000000000000000000007A
:101670000110000000000000000000000000000059
:10168000000000000000000000000000000000005A
:101690000000011000000000000000000000000039
:1016A000000000000000000000000000000000003A
:1016B0000000000001100000000000000000000019
:1016C000000000000000000000000000000000001A
:1016D00000000000000001100000000000000000F9
:1016E00000000000000000000000000000000000FA
:1016F00000000000000000000110000000000000D9
:1017000000000000000000000000000000000000D9
:1017100000000000000000000000011000000000B8
:1017200000000000000000000000000000000000B9
:101730000000000000000000000000000A10360059
:101740000000FF80FF80C000C000C000FF80FF805D
:10175000C000C000C000FF80FF800000000001103A
:101760000000000000000000000000000000000079
:101770000000000000000000000000000000000069
:101780000110000000000000000000000000000048
:101790000000000000000000000000000000000049
:1017A0000000011000000000000000000000000028
:1017B0000000000000000000000000000000000029
:1017C0000000000001100000000000000000000008
:1017D0000000000000000000000000000000000009
:1017E00000000000000001100000000000000000E8
:1017F00000000000000000000000000000000000E9
:1018000000000000000000000110000000000000C7
:1018100000000000000000000000000000000000C8
:1018200000000000000000000000011000000000A7
:1018300000000000000000000000000000000000A8
:101840000000000000000000000000000110000087
:101850000000000000000000000000000000000088
:101860000000000000000000000000000000011067
:101870000000000000000000000000000000000068
:101880000000000000000000000000000000000058
:101890000110000000000000000000000000000037
:1018A0000000000000000000000000000000000038
:1018B0000000011000000000000000000000000017
:1018C0000000000000000000000000000000000018
:1018D00000000000011000000000000000000000F7
:1018E00000000000000000000000000000000000F8
:1018F00000000000000001100000000000000000D7
:1019000000000000000000000000000000000000D7
:1019100000000000000000000110000000000000B6
:1019200000000000000000000000000000000000B7
:101930000000000000000000000001100000000096
:101940000000000000000000000000000000000097
:10195000000000000000000000000000081000006F
:1019600000006C006C00000038007C00C600FE0027
:10197000FE00C000E6007C003800000000000110FE
:101980000000000000000000000000000000000057
:101990000000000000000000000000000000000047
:1019A0000110000000000000000000000000000026
:1019B0000000000000000000000000000000000027
:1019C0000000011000000000000000000000000006
:1019D0000000000000000000000000000000000007
:1019E00000000000011000000000000000000000E6
:1019F00000000000000000000000000000000000E7
:101A000000000000000001100000000000000000C5
:101A100000000000000000000000000000000000C6
:101A200000000000000000000110000000000000A5
:101A300000000000000000000000000000000000A6
:101A40000000000000000000000001100000000085
:101A50000000000000000000000000000000000086
:101A60000000000000000000000000000C1000005A
:101A700000000E000E001B001B001B003180318097
:101A80003F807FC060C060C0C060000000000B10DD
:101A900000000000FF80FF80C000C000C000FF0009
:101AA000FF80C1C0C0C0C0C0FF80FF0000000000B8
:101AB0000B1000000000FF00FF80C180C180C180CA
:101AC000FF00FF80C1C0C0C0C0C0FF80FF00000099
:101AD00000000A1000000000FF80FF80C000C0006E
:101AE000C000C000C000C000C000C000C000C000F6
:101AF000000000000D10000000000FC01FC018C043
:101B000018C018C030C030C030C030C060C0FFF056
:101B1000FFF0C030C0300A1000000000FF80FF80DE
:101B2000C000C000C000FF80FF80C000C000C00037
:101B3000FF80FF80000000000D1000000000C63094
:101B400066606660666036C00F0036C036C066608C
:101B50006660C630C63000000000091000000000BA
:101B60003E007F00C30003001E001E0007000300AC
:101B7000C300E7007E003C00000000000B100000E6
:101B80000000C0C0C1C0C3C0C3C0C6C0CCC0CCC0B0
:101B9000D8C0F0C0F0C0E0C0C0C0000000000B1012
:101BA0001E000C00C0C0C1C0C3C0C3C0C6C0CCC0F2
:101BB000CCC0D8C0F0C0F0C0E0C0C0C00000000081
:101BC0000B1000000000C0C0C180C300C600CC00E4
:101BD000DE00F600E300C300C180C1C0C0C0000049
:101BE00000000A10000000001F803F8031806180EB
:101BF000618061806180618061806180E180C180FD
:101C0000000000000C1000000000E0E0E0E0F1E067
:101C1000F1E0D160DB60DB60DB60CE60CE60CE6087
:101C2000C460000000000A1000000000C180C180F4
:101C3000C180C180C180FF80FF80C180C180C18020
:101C4000C180C180000000000B10000000001E00D9
:101C50007F806180C0C0C0C0C0C0C0C0C0C0C0C0A4
:101C600061807F801E00000000000A10000000005C
:101C7000FF80FF80C180C180C180C180C180C180E0
:101C8000C180C180C180C180000000000A10000036
:101C90000000FE00FF00C380C180C380FF00FE0083
:101CA000C000C000C000C000C000000000000B1059
:101CB000000000001F007F8061C0C080C000C00025
:101CC000C000C000C08061C07F801F000000000015
:101CD0000B1000000000FFC0FFC00C000C000C0047
:101CE0000C000C000C000C000C000C000C000000A0
:101CF00000000B1000000000C0C0C0C06180618007
:101D0000330033001E001E000C000C007800700031
:101D1000000000000F100000000003001FE07FF82B
:101D20006318C30CC30CC30CC30C63187FF81FE00B
:101D30000300000000000A1000000000C180E380E2
:101D4000630036003E001C001C003E0036006300AD
:101D5000E380C180000000000B1000000000C18083
:101D6000C180C180C180C180C180C180C180C1806B
:101D7000C180FFC0FFC000C000C00B100000000009
:101D8000C0C0C0C0C0C0C0C0C0C0E0C07FC03FC0F5
:101D900000C000C000C000C0000000000D10000026
:101DA0000000C630C630C630C630C630C630C63079
:101DB000C630C630C630FFF0FFF0000000000E1045
:101DC00000000000C630C630C630C630C630C6304F
:101DD000C630C630C630C630FFF8FFF8001800180D
:101DE0000C1000000000F000F00030003000300067
:101DF0003F803FC030E0306030E03FC03F800000B7
:101E000000000D1000000000C030C030C030C030F5
:101E1000C030FE30FF30C3B0C1B0C3B0FF30FE30C1
:101E2000000000000A1000000000C000C000C00058
:101E3000C000C000FE00FF00C380C180C380FF005F
:101E4000FE00000000000B10000000001E007F805C
:101E5000E180C0C000C00FC00FC000C0C0C0E180A2
:101E60007F801E00000000000E1000000000C1C0B6
:101E7000C7F0C630CC18CC18FC18FC18CC18CC18FD
:101E8000C630C7F0C1C0000000000C100000000008
:101E90001FE03FE07060606070603FE00FE01C603A
:101EA000386030607060E0600000000009100000E1
:101EB00000000000000000007C00FE00C6001E00C4
:101EC0007E00E600C600FE007B0000000000091056
:101ED000000002007E00FC00C000FC00FE00E700E5
:101EE000C300C300C300E7007E003C000000000008
:101EF000081000000000000000000000FC00FE00D0
:101F0000C600FC00FC00C600C600FE00FC0000008D
:101F10000000081000000000000000000000FE00AB
:101F2000FE00C000C000C000C000C000C000C00073
:101F3000000000000C100000000000000000000085
:101F40001F803F8031803180318031806180FFE0AF
:101F5000FFE0C060C060081000000000000000004A
:101F6000000038007C00C600FE00FE00C000E60055
:101F70007C003800000000000D1000000000000090
:101F800000000000C630666036C036C00F0036C0A4
:101F90006660C630C6300000000009100000000076
:101FA0000000000000007E00FF0003000E000F0094
:101FB0000300C300FF007E000000000009100000C5
:101FC0000000000000000000C300C700CF00DF00D9
:101FD000FB00F300E300C300C30000000000091091
:101FE000000024003C0018000000C300C700CF0020
:101FF000DF00FB00F300E300C300C30000000000AB
:10200000081000000000000000000000C600C6002C
:10201000CC00F000F000CC00C600C600C6000000F6
:1020200000000910000000000000000000003F0058
:102030007F0063006300630063006300E300C3008C
:10204000000000000C100000000000000000000074
:10205000E0E0E0E0F1E0F1E0DB60DB60CE60CE608C
:10206000C460000000000910000000000000000033
:102070000000C300C300C300FF00FF00C300C30093
:10208000C300C300000000000910000000000000B1
:10209000000000003C007E00E700C300C300C30056
:1020A000E7007E003C000000000009100000000076
:1020B000000000000000FF00FF00C300C300C300D9
:1020C000C300C300C300C3000000000009100000EB
:1020D0000000000000000000DE00FF00E300C3007D
:1020E000C300C300E700FE00DC00C000C000081011
:1020F000000000000000000000003C007E00E60040
:10210000C000C000C000E6007E003C0000000000EF
:10211000091000000000000000000000FF00FF00A8
:102120001800180018001800180018001800000007
:1021300000000B1000000000000000000000C0C004
:10214000C0C061806180330033001E001E000C009F
:10215000780070000D10000000000000060006006E
:102160003FC07FE0C630C630C630C630C6307FE0E4
:102170003FC006000600081000000000000000003C
:102180000000C600EE006C003800380038006C001B
:10219000EE00C600000000000A1000000000000071
:1021A00000000000C300C300C300C300C300C3009D
:1021B000C300FF80FF800180018009100000000043
:1021C000000000000000C300C300C300C300FF0004
:1021D0007F00030003000300000000000B1000005C
:1021E0000000000000000000CCC0CCC0CCC0CCC0BF
:1021F000CCC0CCC0CCC0FFC0FFC0000000000C10A1
:1022000000000000000000000000CCC0CCC0CCC02A
:10221000CCC0CCC0CCC0CCC0FFC0FFE00060006030
:102220000B1000000000000000000000F000F000B3
:1022300030003F803FC030C030C03FC03F80000012
:1022400000000C1000000000000000000000C06052
:10225000C060C060FE60FF60C360C360FF60FE607E
:102260000000000009100000000000000000000055
:10227000C000C000C000FE00FF00C300C300FF009C
:10228000FE00000000000910000000000000000037
:1022900000007E00FF00C3000F000F000300C3001A
:1022A000FF007E00000000000C1000000000000095
:1022B00000000000C780CFC0DCE0F860F860D860A4
:1022C000DCE0CFC0C7800000000009100000000063
:1022D0000000000000007F00FF00C300C300FF00FB
:1022E0007F0033006300C300000000002DE9F14FC0
:1022F000B2B09946924600230691CDE900333C9A4C
:102300000F930DF14A0114914A7011E0329E574625
:102310002C4617F8011B0698B0470028069000F0DD
:1023200026810F98401C641E0F90F2D13296AA4469
:102330009AF80000252808D10021002209910A926C
:102340000B910C920D910E920FE06A464FF0FF3107
:10235000504601F07FF8050002D10F9800F066BEEC
:10236000D4D50125E3E741F001011AF8010F202837
:10237000F9D023280CD02B2804D02D2805D03028C4
:1023800009D00BE041F00201EFE741F00401ECE776
:1023900041F00801E9E741F01001E6E72A280FD1F2
:1023A000D9F8002052F8040BC9F800200028119039
:1023B00003D54042119041F004010AF1010A14E0F2
:1023C0001192DFF8EC3B0AE01198984205DA00EB35
:1023D000800402EB4402303A11920AF1010A9AF8A1
:1023E0000020A2F130000A28EED39AF800002E282F
:1023F00003D04FF0FF32109229E01AF8010F2A287B
:1024000009D1D9F8000050F8042BC9F80000109247
:102410000AF1010A1BE02D280CBF0AF1010A002075
:1024200000221092DFF8882B0BE040B9109B9342FA
:1024300005DA03EB830504EB4504303C10940AF104
:10244000010A9AF80040A4F130030A2BEDD3ADF84D
:1024500048100FF660309AF8001001F005F808B146
:102460001AF8010B8DF84A009DF84A00682805D13A
:102470009AF8000068280CD1622106E06C2804BF9D
:102480009AF800006C2804D171218DF84A100AF1E5
:10249000010A1FA808901AF801BBBBF125012DD035
:1024A0001C3900F06181091F022940F25D810E395B
:1024B0002AD0491F00F0B384093900F05581891EE4
:1024C00000F04985491E00F0F584491E022940F2BA
:1024D0004B81091F00F0EE84491F00F0BA80491EAD
:1024E00000F09D84491E65D0C91E21D0891E00F0D0
:1024F0009684C91E00F0938400F04CBD25238DF80E
:102500007C30012109912AE06C208DF84A00D9F82D
:10251000000050F8042BC9F80000002A43D1149998
:10252000487800283DD04FF0FF340FF6902012E09D
:102530009DF84A006C28EAD0D9F8000050F8044B06
:10254000C9F800000794D4B91499487898B14FF0AD
:10255000FF340FF6842000F0A1FF201A07D1329833
:102560001FAA04A900F065FD00287FF5E1AE4FF039
:10257000FF3000F05BBD0FF67C200790EFE7109D69
:10258000002D04D5204600F0A9FF044607E02A46A6
:10259000204600F0CBFF002814BF041B2C460A94F1
:1025A000DDE70FF65422329804A900F0C8FD002898
:1025B000D5D5DCE7D9F8001051F8040BC9F80010A4
:1025C00020F00004002121F0FF351FABCDE90445C8
:1025D0000793DDE9042308993C2413B90AB910983C
:1025E00098B102F00F053035641EEEB23A2EA8BF46
:1025F0002735120942EA03721B090D5508BF002A4C
:1026000003D007980D19A842EBD308190790C4F11D
:102610003C0210980A92824209DABDF84810821AE8
:102620004FF6EF7001400C92ADF8481097E7002884
:1026300095D59DF8480000F0140010288FD1119B0B
:1026400009990C985B1A1B1A9A1A002A87DD0C92BA
:1026500085E71499487820B14FF0FF340FF69C10AD
:1026600079E79DF84A00622862D0682819D06A2864
:1026700040D06C2806D071284DD074282DD07A28EF
:102680001ED064E0D9F8001051F8040BC9F800100E
:1026900020B94FF0FF340FF67C105CE70F99016012
:1026A0005DE7D9F8001051F8040BC9F8001020B903
:1026B0004FF0FF340FF65C104DE70F9901804EE7A5
:1026C000D9F8001051F8040BC9F800100028E5D122
:1026D0004FF0FF340FF63C103DE7D9F8001051F8E9
:1026E000040BC9F800100028D8D14FF0FF340FF6C2
:1026F000241030E7D9F8001051F8040BC9F8001085
:1027000020B94FF0FF340FF60C1024E70F9AD317BF
:10271000C0E9002323E7D9F8001051F8040BC9F8E9
:1027200000100028F2D14FF0FF340FF6E80012E756
:10273000D9F8001051F8040BC9F8001020B94FF077
:10274000FF340FF6D00006E70F99017007E7D9F8BC
:10275000001051F8040BC9F8001000289ED14FF06A
:10276000FF340FF6B000F6E6D9F80020D21D22F0B3
:102770000702C9F80020D2E900010832C9F8002098
:10278000CDE90401C80F02D009982D210AE0BDF857
:102790004800810702D509982B2103E0C00705D521
:1027A000099820211FAA1154401C0990DDE9042337
:1027B00009991FA8CDE92E2308444BF02001612977
:1027C000079015AC0BD01099002902D50621109165
:1027D00005E001BF4BF02001672901221092DDE9DD
:1027E000042359004915491C10D11A030ED0ABF12E
:1027F000610503211A2D0A9102D20FF6A43101E0DE
:102800000FF6A031032200F0BDFEA8E659004915DD
:10281000491C0AD11A0308D1ABF1610503211A2D15
:102820000A9116D30FF68431ECE7DDE90401CDE916
:102830003001DDE9302323F00047B7F5801F22F097
:1028400000060DD20022002F08BF002E029203D1F5
:1028500016E00FF65431D5E702AA00F0E7FE0FE0CC
:10286000DFF8EC0ADFF8EC1A00EB17500290DDE914
:1028700030234FF0FF301940DFF8DC7A1040394345
:10288000CDE904014BF0200061280DD107983021DB
:102890000170821CBBF1610F07920CBF7821582197
:1028A00041700998801C0990DDE9040120F00002C4
:1028B00031F0004308BF002A02D10026002571E153
:1028C0004BF02008B8F1610F40F0BE80109800284E
:1028D00047BF21210391401C0390039FDDE92E0196
:1028E0007F1C00220023DDE9044500F0D7FE029999
:1028F0008DF8542038BF85F00045091F002F029144
:102900000DF155065DDDDFF8541ACDE9302140F2B6
:10291000FF732E93204629460022002300F0D6FEA6
:102920004FD24800400D00F11C0215D0002A13DDE3
:102930002E9B9A420ADBDDE9300121F0004205F0CE
:1029400000400243DDE93001114611E06FF31E51F2
:1029500041EA025120460BE024F0000035F000412E
:1029600008BF00280FBF29461C22294600F0C6FEDA
:1029700004460D4600F060FFFF1F002F804609DD72
:1029800000F078FF02460B462046294600F084FFFF
:1029900004460D46F01D0721B8F1000F0CDD491E5D
:1029A0005EBF08F00F0200F8012D4FEA2818F3D59A
:1029B00002E0002200F8012D491EFAD5C61D002FA5
:1029C000A8DC0DF15500361A03988642D8BF304670
:1029D00000280DF1550430D4B04206DA0DF155014E
:1029E0000A5C082AA8BF0F2100DA0021024615ABB5
:1029F000134400E0401E13F80159521E8D42F9D0D5
:102A00000F2904D10DF155018B5C5B1C8B54002AFE
:102A100004D50299091D15AC401C0291411E0CD42D
:102A20006218ABF13A0613783033DDB23A2DA8BF05
:102A3000F318491E02F80139F5D51099002940F123
:102A4000AF80421E1092ABE00299DFF8142947F2E2
:102A50009750414391FBF2F2DDE92E45029225F0B9
:102A60000045D2F1070204DD2046294600F04CFC67
:102A70000BE052420020DFF8EC1800F045FC024663
:102A80000B462046294600F079FF0446B8F1660F50
:102A9000109806BF029F0A3706273F18142FC8BF99
:102AA000142730208DF854000D460020DFF8B818A8
:102AB000CDE92E010DF15506002F33DD20462946C4
:102AC00001F080F801460A4606F1080304200A26B0
:102AD000B2FBF6F606EB860EA2EB4E02303203F89E
:102AE000012C0A22B6FBF2F202EB820EA6EB4E0696
:102AF0003036401E03F8026DE9D1083F002F03F184
:102B00000806D9DD084601F071F802460B4620465A
:102B1000294600F0C1FEDDE92E2301F075F80446D8
:102B20000D46CBE70DF15500361A0DF1550404E0C2
:102B30000298401E761E0290641C20783028F7D040
:102B4000B8F1660F02D10299491C04E0B8F1650F93
:102B50000CBF01210021109808188642B8BF701ED2
:102B600000281DD4B04204DA215C3429C8BF3921C1
:102B700000DC30210246631E9D1800E0401E15F85F
:102B80000169521E8E42F9D0392902D1A15C491C3B
:102B9000A154002A04D50299491C1C46401C0291EC
:102BA0000646029D00F05AFC406A0778DDF8408036
:102BB00030B2002802DC01260FF2F4744BF0200042
:102BC000662808BF6D1C16D0672846D128B210F1C0
:102BD000040F48DB404546DA9DF848006D1C0107AC
:102BE00003D430B24045B8BF804628B2B8EB0008E5
:102BF00048BF4FF000080FFA85FB07980A99BBF110
:102C0000000F00F3B2804A1C0A9230234354B8F1FB
:102C1000000F03DC9DF84800010704D50A98411C09
:102C20000A9107990F5418EB0B0FB8BFC8F10005B4
:102C30002DB268420D90A84432B29045B8BF4646C6
:102C4000079B0A9836B20B9632462146184400F08C
:102C500099FCA8EB06000E90CBE0BBF1610F17D1F9
:102C60004FF0700B19E030B2404504DA9DF848107F
:102C70000A0758BF8046B8F1010848BF4FF0000866
:102C8000BBF1670F14BF4FF0450B4FF0650B04E02D
:102C9000BBF1410F08BF4FF0500B0A98411C0A913D
:102CA000B8F1000F079914F8012B0A5403DC9DF8C2
:102CB000480001071AD50A98411C0A91B8F1000F83
:102CC00007990F5412DD761E30B2804507980A9B93
:102CD000B8BF464632B22146184400F053FC0A9968
:102CE00036B271180A91A8EB06000D9007980A9960
:102CF00008442AB2002A80F800B003D42B22427084
:102D0000811C04E02D2141701546811C6D4200207C
:102D10002EAA0A2409E02B4693FBF4F505EB850661
:102D2000A3EB460302F8013B401C2DB2002DF2DC60
:102D3000012806DC4BF02002652A04BF302201F88E
:102D4000012B00282EAA08D1302001F8010B06E043
:102D5000401E135C303301F8013B0028F8DC079A71
:102D60000A981044091A0B9143E0084431B22AB280
:102D7000914219DA32B2214600F004FC0A9936B2C7
:102D80007118ABEB0606B8F1000F0A910D9603DC43
:102D90009DF84800020704D5079847540B99491C31
:102DA0000B91CDF8388024E0214600F0EBFB0A9827
:102DB000761B5844B8F1000F0A9003DC9DF84810C8
:102DC0000A0703D5411C0A9107990F5430B2804578
:102DD00007980A9BB8BF464632B204EB0B01184471
:102DE00000F0D0FB0A9836B230180A90A8EB060023
:102DF0000D909DF8480000F0140010287FF4AFAB50
:102E0000099A0A990D988A180B9982180E988A18AF
:102E1000821811988242BFF6A2AB821A17E49DF87D
:102E20004A00622808D068280ED06A2814D06C287E
:102E30001FD0712810D01CE0D9F8001051F8040BF5
:102E4000C9F80010C0B21AE0D9F8001051F8040B0C
:102E5000C9F8001080B212E0D9F80020D21D22F08B
:102E60000702C9F80020D2E900010832C9F80020A1
:102E700006E0D9F8001051F8040BC9F80010002141
:102E8000CDE904019DF8480001075AD5DDE9042386
:102E9000002B08BF002A54D04BF02000782850D1D6
:102EA00009981FA930220A54401C431C099301F8B9
:102EB00000B046E09DF84A00622808D068280ED08D
:102EC0006A2814D06C281FD0712810D01CE0D9F8C3
:102ED000001051F8040BC9F8001040B21AE0D9F8FC
:102EE000001051F8040BC9F8001000B212E0D9F834
:102EF0000020D21D22F00702C9F80020D2E900010B
:102F00000832C9F8002006E0D9F8001051F8040B87
:102F1000C9F80010C117CDE90401002902D50998AC
:102F20002D210AE0BDF84800810702D509982B2120
:102F300003E0C00705D5099820211FAA1154401CA1
:102F400009901FA809990144079104A8594600F067
:102F500056F9FFF704BB9DF84A006C280BD00121FD
:102F60000991D9F8000050F8041BC9F800008DF849
:102F70007C10FFF7F4BAD9F8000050F8041BC9F828
:102F8000000015914FF0FF3210920021169115AA02
:102F9000FFF709BB25210122BBF1000F8DF87C1042
:102FA00009923FF4DCAA8DF87DB00221FFF7AABA9E
:102FB000CBCCCC0C686A6C747A4C00007072696E71
:102FC00074665F733A2062616420256C73206172BD
:102FD00067756D656E7400007072696E74665F73FC
:102FE0003A2062616420257320617267756D656E99
:102FF0007400000000000000000000007072696EA4
:1030000074665F733A20256E20646973616C6C6F1F
:10301000776564007072696E74663A20626164203C
:10302000256E20617267756D656E740033B0BDE802
:10303000F08F2DE9FC410F46064690467A6B786981
:10304000396ABC6A121AB869521A796A121AF8698E
:10305000521A121A97F83800141B41070FD4202077
:10306000002C8DF800000ADD254601236A4639460A
:10307000304600F07DF900285DD16D1EF5D17B69E9
:1030800042463946304600F073F9002853D13020CB
:103090008DF800003D6A002D09DD01236A4639469E
:1030A000304600F065F9002845D16D1EF5D1BB69A9
:1030B000FA683946304600F05BF900283BD13020F1
:1030C0008DF800007D6A002D08DD01236A4639462F
:1030D000304600F04DF970BB6D1EF6D1F868B96945
:1030E000FB6942183946304600F042F918BB3020DF
:1030F0008DF80000BD6A002D08DD01236A463946BF
:10310000304600F035F9B0B96D1EF6D197F83800A9
:1031100041070DD52020002C8DF8000008DD01238B
:103120006A463946304600F023F920B9641EF6D1CC
:103130000020BDE8F6814FF0FF30BDE8F6812DE9B3
:10314000F8470D46A3B02F6B002F8246904648BF2C
:103150006FF0004700F029FE696B401801AA0021BA
:10316000C2E90011812828BF4FF0FF3044D28946C0
:103170001EE0A74230DB6869201881280BD30021AC
:10318000696303AA29465046FFF753FF5FEA000927
:1031900022D40020686103AB6E6922466946981903
:1031A00000F0F0F9A6196E6158F8040BA0B13F1BAE
:1031B000002F11DDD8F8001001AA684600F04CF984
:1031C0000446002C05D4D8F800000028D1D1641E94
:1031D000CFD54FF0FF390EE0B9F1000F504604D1C2
:1031E00003AA2946FFF725FF8146B9F1000F02D156
:1031F000002068616863484624B0BDE8F0872DE987
:10320000FC4307466F293E6908BF082405D041F0FA
:103210002000782814BF0A2410243C25D7E9002375
:10322000642918BF69299046994605D1002B03D51A
:10323000D8F1000869EB4909B9F1000F08BFB8F1EE
:10324000000F0CD1386B50B9082C39D197F83800E1
:10325000010735D530203B2586F83B0030E08DF85E
:103260000010404649462246E31700F0A3FD3032E5
:10327000D0B26D1E3A28019504DB9DF80000A0F144
:1032800051018A187255404649462246E31700F01C
:1032900091FD80465FEA010908BFB8F1000F03D035
:1032A000F86871198842DCD3082C09D197F83800E6
:1032B000010705D5705D302802D06D1E3020705595
:1032C000C5F13C02BA617119F960386B824208DAC3
:1032D000821A3A624FF6EF70398F01403987BDE8A4
:1032E000F38300280ED597F8380000F0140010285A
:1032F00008D17B6B7969386A5B1A1B1A9A1A002A03
:10330000C8BF3A62BDE8F3832DE9D04306460F46B5
:1033100014464FF00008DFF8549012E0E00707D59C
:1033200042464B463046394600F06EFC06460F4694
:103330004046494642464B4600F066FC64108046D3
:103340008946002CEAD130463946BDE8D0830000DA
:1033500002FCFFFFFFFF0F800000E03F0000F07F56
:10336000A08601000000F03F84D797410000244070
:10337000F8B505460E4617461C4600205CB117F806
:10338000011BB068A847B06030B1F06A401CF06221
:103390000020641EF3D1F2BD4FF0FF30F2BD0000FB
:1033A0006E616E004E414E00696E6600494E4600E9
:1033B000300030B4002513E050F8042BD30744BF8D
:1033C000A9F101039A18091F042942F8045BFAD2F3
:1033D00013468C0744BF15809B1CC90748BF1D704E
:1033E00050F8041B0029E7D130BC70471C487047D7
:1033F00070B45368D41801E05B1C491E042B08DA32
:1034000000291FBF057804F8015B10F8016B002E3E
:10341000F2D1536070BC704738B514461D4661B197
:10342000FFF7E6FF61686A6B204690476FF0010284
:10343000811A02D0491E01D001E003E005E000211D
:10344000616032BD6FF0010032BD4FF0FF3032BD20
:10345000DA6B1047024BDFE7014BF9E70148704791
:103460009C01002064010020C9B202788A421AB18E
:103470001CBF10F8012FF9E718BF00207047B1F505
:10348000807F02D34FF0FF307047017001207047FA
:103490000078401E8041C043C00F704780B500B91E
:1034A00006A005490B681BB122220021984701E0C4
:1034B00000F098FD222002BD180D0020636F6E738E
:1034C000747261696E742068616E646C65723A2012
:1034D000626164206D6573736167650000F10103CB
:1034E000810704D010F8011B820781B1FAD102686C
:1034F000A2F10131914311F0803104BF50F8042F43
:10350000F6E709BAB1FA81F100EBD100401CC01A0C
:1035100070478268521C8260426832B10268531C54
:10352000036011704168491E41607047C9B283074A
:1035300006D0521E22D310F8013B9942F7D11FE06A
:10354000083A13D302F1040241EA012141EA0141A0
:1035500050F8043B121F21BF4B40A3F1013C2CEA61
:10356000030C1CF0803FF3D0C9B2001F083210F8E2
:10357000013B521E28BF91EA030FF8D818BF012063
:10358000401E704762B38B0708D0521E11F8013BF2
:1035900000F8013B00F024808B07F6D1830740F050
:1035A000208000BF103A07D330B4B1E83810103A89
:1035B000A0E83810F9D230BC530724BFB1E8081096
:1035C000A0E8081044BF51F8043B40F8043BD20780
:1035D00024BF31F8022B20F8022B44BF0B78037074
:1035E0007047121F17D35B0009D151F8043B20F834
:1035F000023B1B0C121F20F8023BF6D20BE051F8E5
:10360000043B00F8013B1B0A20F8023B1B0C121F75
:1036100000F8013BF3D238BF121D521E24BF11F82F
:10362000013B00F8013BF8D870472E0010B5144656
:1036300000F002F8226010BDC1F30A5343B14A0002
:1036400012F5001F28D2A3F2FE32A1EB02517047FF
:1036500050EA410C20D001F0004C31EA0C01B1FAE3
:1036600081F204BFB0FA80F3D2180B3AB2F1200312
:103670002CBF00FA03F1914041EA0C013EBFC2F1B8
:10368000200C20FA0CF319439040524240F2FD33D3
:10369000D21A01EB03517047002270474FF4001C0F
:1036A0001CEB410F94BF1CEB430F09E041EA030CF4
:1036B00050EA4C0C52EA0C0C03D2994208BF9042DB
:1036C000704714BF8B428242704743004FF4001C86
:1036D0001CEB410F94BF1CEB430F09E041EA030CC4
:1036E00050EA4C0C52EA0C0C03D28B4208BF8242C7
:1036F000704714BF9942904270470000124254D460
:1037000040F2FF7C1CEA11530FD0634531D09B1867
:1037100063453CBF01EB0251704701F0004141EAB3
:103720000C510020AFF30080704750EA410320D0D5
:1037300001F0004C91EA0C011CD0B1FA81F30B3B73
:103740009A420DD9D21A994051EA0C01C3F1200CCA
:1037500020FA0CFC61449840531C40F2FF7CD7E7F0
:10376000914041EA0C01C2F1200C20FA0CF31943FC
:1037700090407047B0FA80F31533202BE0D3202A15
:10378000EED3203A203B9A4209D9D21A00FA03F12B
:1037900041EA0C010020531C40F2FF7CB8E700FA1C
:1037A00002F141EA0C0100207047524240F2FF7CD6
:1037B0001CEA11530DD06345DBD0B2EB030C3CBFC8
:1037C000A1EB025170470CF1010221EA035141F4CF
:1037D000801150EA410CCCD001F0004C352A27DC96
:1037E00030B481EA0C01B2F1200309DAC2F12003FE
:1037F000044601FA03F5D0402843D1409C400CE038
:10380000C3F12002450020FA03F418BF44F001047C
:1038100021FA03F091400C43002174F1004550F16E
:10382000000051EB0C01244230BC7FF47BAF7047A9
:103830006146002076E70000C1F30A5340F2FE32F1
:103840009B1A14DDD3F120034FEAE17208DDC902AF
:1038500041EA505141F00040D84080185040704734
:1038600003F2E13010B1D24382F0004070470020F3
:1038700070470000C11768B14840401AB0FA80F2A2
:103880009040D21CC907C2F5846241EA025202EBA1
:10389000D02140057047000070B44FF0004591EA18
:1038A000030F40F1A3836B40841A71EB030603D22C
:1038B000001BB141121973414FF4001C1CEB410F66
:1038C00034BF7CEB430442E00C0DA4EB1356352EC1
:1038D0004FDC45EAC323DB0A45EAC121C912B6F130
:1038E00020050DDD63FA05F6EB4086EA030512427A
:1038F00018BF45F00105C01851F100010CD213E0CA
:1039000062FA06F5F2405540F3415A40B340F340A5
:103910005A408018594107D349085FEA30005FEAEE
:10392000350528BF45F0010501F58011420875F104
:10393000004250F1000041EB04514E0016F5001F0B
:1039400070BC38BF70470020090D090570471CEB9B
:10395000410F10D252EA43060BD0BCEB410F05D801
:103960000C0DAB43661E342EB6DD02E0AB4380186F
:10397000594170BC704770BC70470000F0B540F210
:10398000FF7581EA030C0CF0004C15EA11541DBFC1
:1039900015EA1357AC42AF42E5E0BC41C1F3130155
:1039A000C3F31303801A994143F4801304D2641EB5
:1039B0004000494180185941C90241EA5051B1FBC8
:1039C000F3F603FB1611A2FB0675D7EBC020A94145
:1039D00002D2761E80185941C90241EA5051B1FB0A
:1039E000F3FE03FB1E11A2FB0E75D7EBC020A9410D
:1039F00003D2AEF1010E80185941890241EA90517B
:103A0000760546EA8E2EB1FBF3F603FB1611A2FBF8
:103A10000675D7EB8020A94102D2761E8018594145
:103A2000C90241EA50514EEA060EB1FBF3F603FB20
:103A30001611A2FB0675D7EBC020A94102D2761E53
:103A400080185941C90241EA5051B1FBF3F703FB19
:103A50001711A2FB0735D3EBC020A94167F100077E
:103A60000CBF004247F0010766F3D5274FEA1E312D
:103A7000B80814F5806412DDBD0775F1004250EB03
:103A80000E5051EB045111F5801F5CBF41EA0C014F
:103A9000F0BD4CF07F6141F0E0410020F0BDBD077A
:103AA0006D0840EA0E5041F48011D4F10104B4F1E4
:103AB00020060ADAC4F120060200E04001FA06F30B
:103AC000E1401843B24015430EE0342C13DCC6F13C
:103AD000200445EA40056D0820FA06F2154321FA54
:103AE00006F0A1400D43002175F1004250F10000A5
:103AF00051EB0C01F0BD00205FEA0C01F0BDCFB925
:103B000092185B41B3FA83F704BFB2FA82F6BF1989
:103B10000B3FB7F120062FBF02FA06F3BB40C7F1F7
:103B2000200622FA06F638BF3343BA401CB1E41926
:103B3000641E33E77F4231F00041B1FA81F404BFE3
:103B4000B0FA80F6A4190B3CB4F120062FBF00FA9E
:103B500006F1A140C4F1200620FA06F638BF314331
:103B6000A0403C1B1AE7AC421ABF05EA1357AF420C
:103B700012E050EA41061CBF52EA4306BFE750EA92
:103B80004107304661461CBF41EA0551F0BD52EA8B
:103B9000430C08BFC143F0BD00204FF4001616EBE4
:103BA000410F98BF16EB430F08BF16EB410F24BF20
:103BB000C14305E016EB430F0CBF61464CEA0551CB
:103BC000F0BD0000400D491840EA81200CD2490D9B
:103BD000A1F58061491C40F0004005DBD1F11F01D7
:103BE00054BFC840C017704700207047014648B115
:103BF000B0FA80F18840C91CC1F58461090501EB68
:103C0000D021400570470000B0B581EA030C0CF0EC
:103C1000004C40F2FF7515EA11541DBF15EA135709
:103C2000AC42AF4239E0E41923EA455343F4801330
:103C3000C90241F0004141EA505EC7021100A7FBF2
:103C4000020200284FF00000EEFB01204FF00001BF
:103C5000E3FB072118BF42F001024018002149414F
:103C6000E3FB0E01A4F580640F0302D25200404131
:103C7000494154F101046CDD470872F1004250F1F2
:103C8000000051EB0451A1F580115CBF41EA0C0129
:103C9000B0BD4CEA05510020B0BD05EA1357AC4257
:103CA00014BFAF4241E050EA410E1CBF52EA430E3E
:103CB00002E061460020B0BD24423C441BD15FEAD3
:103CC000070EF6D0090302BF01460020AEF1140E24
:103CD000B1FA81F7AEEB070401FA07FE0C37C7F122
:103CE000200100FA07F7C8404EEA000E23EA4553C8
:103CF00043F48013A2E733F00043B3FA83F704BF21
:103D0000B2FA82FE77440B3FE41BB7F1200E2FBFBF
:103D100002FA0EF3BB40C7F1200E22FA0EFE38BFA6
:103D200043EA0E03BA40641C82E750EA410E14BF16
:103D300052EA430E6FF000014FF4001717EB430FE8
:103D40008ABF194617EB410FB5E74CEA0551002031
:103D5000B0BDD4F10104B4F120070FDAC4F120079B
:103D6000520828BF42F0010210FA07F501FA07F7DE
:103D7000E1BF2A43E0403843E1400FE0352C98DCB6
:103D8000C7F1200452EA400220FA07F218BF42F0BD
:103D9000010231FA07F0A1400A43002172F100420A
:103DA00050F1000051EB0C01B0BD80B5FFF71EFBD8
:103DB000006C02BDBBBBE1B1B2F5803F80F07E80FC
:103DC000022A1ED98C46B1FBF2F102FB11C31B047F
:103DD00043EA1043B3FBF2FC02FB1C3380B240EA1F
:103DE0000343B3FBF2F002FB103240EA0C40002325
:103DF0007047022A05D98446B0FBF2F002FB10C2DC
:103E000070474AB105D100F0010249085FEA30006D
:103E1000704700220023704700F09EB90B0002009B
:103E2000002100207047904271EB030CF6D3B3F5EC
:103E3000803F2FD2F0B5B3FA83F7B1FA81F4A7F13E
:103E40000F0E3D1B5340CEF1200602FA0EF2F34155
:103E50005340B5F10F0746D80F3C2C444140C4F104
:103E60002006A040F1414140B1FBF3F603FB1611DF
:103E7000A2FB0645001BA94102D2761E80185941BB
:103E800080EA010221FA0EF362FA0EF200215A4092
:103E90003046F0BD30B4B1FBF3FC03FB1C11A2FBB8
:103EA0000C45001BA94103D2ACF1010C801859410B
:103EB00030BC02460B46604600217047B2F1807F5D
:103EC00065D3F0B5B2FA82F7B1FA81F4C7F10F0603
:103ED0003D1B22FA06F307F1110EF24120355A403C
:103EE000B5F10F07B8D94140C4F12006A040F14117
:103EF0004140B1FBF3FC03FB1C11A2FB0C45001B72
:103F0000A94103D2BCF1010C801859410F2F12D3E3
:103F10000F3FC90341EA5041B1FBF3F603FB161111
:103F2000A2FB0645D4EBC030A94102D2761E801810
:103F3000594146EACC3C07B34140C7F12006B8409E
:103F4000F1414140B1FBF3F603FB1611A2FB06451C
:103F5000001BA94102D2761E8018594180EA010255
:103F600021FA0EF3C7F1200462FA0EF20CFA07F000
:103F70005A402CFA04F13043F0BD80EA010221FAE4
:103F80000EF3002162FA0EF260465A40F0BD8C46F4
:103F9000B1FBF2F102FB11C31B0243EA1063B3FB56
:103FA000F2FC02FB1C331B024CEA002043EA1063C4
:103FB000B3FBF2FC02FB1C331B024CEA002043EA79
:103FC0001063B3FBF2FC02FB1C331B024CEA002023
:103FD00043EA1063B3FBF2FC02FB1C324CEA002004
:103FE00000237047012000F0B9B80000841A71EB7B
:103FF000030604D26E40001BB141121973414FF405
:10400000001C1CEB410F34BF7CEB430683E00C0D1E
:10401000A4EB1356362E00F37C80012E45EAC32311
:1040200041DC43EA525312BFD20292025B082405DC
:1040300045EAC12141EA5051D2EBC020994125D433
:1040400007D1B0FA80F610FA06F162D000202036CF
:1040500008E0B1FA81F6B140C6F1200220FA02F27E
:104060001143B0404FEAF474B4EB465434F0010607
:104070004FEA74040AD8D6F50016760D04F0004411
:10408000F04061FA06F25040F1404840C00A40EA70
:10409000415021F0004128BF5FEA500550F1000077
:1040A00044EBD12135E0DB0A45EAC121C90AB6F16A
:1040B00020050EDD42EA0242120CC5F1200603FA89
:1040C00006F6EB4042EA06056D42984161F10001B7
:1040D0000DE062FA06F5F240554063FA06FC82EA0A
:1040E0000C02F3405A406D42904161EB030111F420
:1040F000801F05D1641E620502D06D004041494118
:1041000021F48011430875F1004350F1000041EBA8
:10411000045170BC70471CEB410F15D223F00043D3
:1041200052EA43060BD04FEA4C0CBCEB410F04D8CB
:104130000C0D661E342EB7DDEBE7801A994150EA6C
:10414000410608BF0021E4E708BF1CEB430F28BF6E
:104150006FF00001DDE700007047000080B5AFF3AD
:104160000080024A11001820ABBEFBE726000200C7
:104170000608000000000000000006080000000023
:104180000000000006080000000000000000060813
:104190000000000000000000060800000000000011
:1041A00000000608000000000000000006080000F3
:1041B00000000000000006080000000000000000F1
:1041C00006080000000000000000060800000000D3
:1041D00000000000060800000000000000000608C3
:1041E00000000000000000000608000000000000C1
:1041F00000000608000000000000000006080000A3
:1042000000000000000006080000000000000000A0
:104210000608000000000000000006080000000082
:104220000000000006080000000000000000060872
:104230000000000000000000060800000000000070
:104240000000060800000000000000000608000052
:104250000000000000000608000000000000000050
:104260000608000000000000000006080000000032
:104270000000000006080000000000000000060822
:104280000000000000000000060800000000000020
:104290000000060800000000000000000608000002
:1042A0000000000000000608000000000000000000
:1042B0000608000000000000000006082020202062
:1042C00020002000060848484800000000000608BA
:1042D0005050F850F850500006082078A07028F090
:1042E00020000608C0C810204098180006086090FA
:1042F000A040A89068000608602040000000000070
:1043000006081020404040201000060840201010F1
:10431000102040000608005020F820500000060839
:10432000002020F8202000000608000000000060A7
:1043300020400608000000F8000000000608000009
:1043400000000060600006080008102040800000A7
:104350000608708898A8C888700006082060202089
:10436000202070000608708808304080F800060899
:104370007088083008887000060810305090F810D7
:1043800010000608F880F008088870000608304021
:1043900080F0888870000608F8081020404040002F
:1043A0000608708888708888700006087088887889
:1043B00008106000060800606000606000000608E9
:1043C000000060600060204006081020408040200F
:1043D000100006080000F800F80000000608804001
:1043E000201020408000060870880810200020005F
:1043F000060870880868A8A870000608708888F801
:10440000888888000608F08888F08888F000060808
:1044100070888080808870000608E0908888889086
:10442000E0000608F88080F08080F8000608F88038
:1044300080F08080800006087088808098887800EE
:104440000608888888F88888880006087020202058
:104450002020700006083810101010906000060828
:104460008890A0C0A090880006088080808080800E
:10447000F800060888D8A8A88888880006088888D0
:10448000C8A898888800060870888888888870007E
:104490000608F08888F08080800006087088888888
:1044A000A89068000608F08888F0A09088000608A8
:1044B00070888070088870000608F820202020206E
:1044C0002000060888888888888870000608888800
:1044D0008888885020000608888888A8A8A85000E6
:1044E00006088888502050888800060888888850E8
:1044F000202020000608F80810204080F800060858
:104500007040404040407000060800804020100885
:1045100000000608701010101010700006082050DF
:10452000880000000000060800000000000000F8FD
:104530000608402010000000000006080000700877
:104540007888780006088080B0C88888F00006085F
:1045500000007080808870000608080868988888C5
:104560007800060800007088F8807000060830485F
:1045700040E04040400006080000788888780870D5
:1045800006088080B0C8888888000608200060205F
:1045900020207000060810003010101090600608EF
:1045A000808090A0C0A090000608602020202020DD
:1045B000700006080000D0A888888800060800005F
:1045C000B0C8888888000608000070888888700055
:1045D00006080000F08888F08080060800007888CF
:1045E0008878080806080000B0C8808080000608A7
:1045F000000078807008F00006084040E040404825
:1046000030000608000088888898680006080000C6
:10461000888888502000060800008888A8A85000D4
:10462000060800008850205088000608000088888E
:104630008878087006080000F8102040F800060886
:1046400010202040202010000608202020202020BC
:104650002000060840202010202040000608689016
:10466000000000000000060800000000000000003C
:10467000060800000000000000000608000000001E
:10468000000000000608000000000000000006080E
:10469000000000000000000006080000000000000C
:1046A00000000608000000000000000006080000EE
:1046B00000000000000006080000000000000000EC
:1046C00006080000000000000000060800000000CE
:1046D00000000000060800000000000000000608BE
:1046E00000000000000000000608000000000000BC
:1046F000000006080000000000000000060800009E
:10470000000000000000060800000000000000009B
:10471000060800000000000000000608000000007D
:10472000000000000608000000000000000006086D
:10473000000000000000000006080000000000006B
:10474000000006080000000000000000060800004D
:10475000000000000000060800000000000000004B
:10476000060800000000000000000608000000002D
:10477000000000000608000000000000000006081D
:10478000000000000000000006080000000000001B
:1047900000000608000000000000000006080000FD
:1047A00000000000000006080000000000000000FB
:1047B00006080000000000000000060800000000DD
:1047C00000000000060800000000000000000608CD
:1047D00000000000000000000608000000000000CB
:1047E00000000608000000000000000006080000AD
:1047F00000000000000006080000000000000000AB
:1048000006085000F880F080F8000608000000005C
:10481000000000000608000000000000000006087C
:10482000000000000000000006080000000000007A
:10483000000006080000000000000000060800005C
:10484000000000000000060800000000000000005A
:10485000060800000000000000000608000000003C
:10486000000000000608000000000000000006082C
:10487000000000000000000006080000000000002A
:10488000000006080000000000000000060800000C
:10489000000000000000060800000000000000000A
:1048A000060850007088F8807000060800000000BC
:1048B00000000000060800000000000000000608DC
:1048C00000000000000000000608000000000000DA
:1048D00000000608000000000000000006080000BC
:1048E00000000000000006080000000000000000BA
:1048F0000608708888F8888888000608F88080F0A4
:104900008888F0000608F08888F08888F00006089B
:10491000F88080808080800006083050505050F829
:1049200088000608F88080F08080F8000608A8A8B3
:10493000A870A8A8A8000608708808100888700049
:104940000608888898A8C88888000608A88898A8B3
:10495000C88888000608888890E090888800060843
:104960003848888888888800060888D8D8A8A88801
:1049700088000608888888F8888888000608708873
:104980008888888870000608F88888888888880061
:104990000608F0888888F08080000608708880808B
:1049A000808870000608F8202020202020000608BB
:1049B000888888887808F000060870A8A8A8A870D9
:1049C00020000608888850205088880006088888BB
:1049D00088888888F808060888888888F808080081
:1049E0000608A8A8A8A8A8A8F8000608A8A8A8A823
:1049F000A8A8F8080608C04040704848700006089B
:104A0000888888C8A8A8C800060840404070484860
:104A1000700006087088083808887000060890A89A
:104A2000A8E8A8A8900006087888888878488800B0
:104A3000060800007008788878000608186080F082
:104A40008888700006080000F088F088F0000608EA
:104A50000000F8808080800006080000305050F888
:104A60008800060800007088F880700006080000C2
:104A7000A8A870A8A8000608000070881088700018
:104A8000060800008898A8C8880006087000889862
:104A9000A8C88800060800008890E09088000608F2
:104AA00000003848888888000608000088D8A88850
:104AB0008800060800008888F8888800060800003A
:104AC00070888888700006080000F8888888880048
:104AD00006080000F088F08080000608000070885A
:104AE0008088700006080000F820202020000608BA
:104AF000000088887808F0000608000070A8A870F8
:104B00002000060800008850205088000608000099
:104B100088888888F808060800008888F80808004F
:104B200006080000A8A8A8A8F80006080000A8A881
:104B3000A8A8F80806080000C040704870000608E1
:104B400000008888C8A8C8000608000040407048D7
:104B500070000608000070883888700006080000A1
:104B600090A8E8A890000608000078887848880097
:104B70000EB4002003B07047B0F8401041F43F413C
:104B8000A0F8401000207047B0F8402044F2FF2108
:104B90000A40A0F8402000207047002070470EB463
:104BA00000B500F1400101220A8000220A808A80BB
:104BB0000A82FFF7E1FF00205DF810FBF0B4CA782D
:104BC000032A2CD8DFE802F002210D160B7830F80A
:104BD000234048F68F12144044F4007420F8234018
:104BE0001DE00B7830F8234048F68F12144020F86F
:104BF000234014E00B7830F8234048F68F1214401D
:104C000044F4C06420F8234009E00B7830F82340D6
:104C100048F68F12144044F4806420F823400A7848
:104C2000154648F2800348F68F7430F82560264018
:104C300032431A4320F8252005460E788A7A002A46
:104C400068D18F887F087F004A78002AB0F850200A
:104C500020D012EBC60605EB460505F580652F60F2
:104C60000A7830F822506D0608D530F822502C40D2
:104C700044F4004444F0C00420F822400A7830F89C
:104C8000224048F6BF710C4084F02004234320F8F2
:104C90002230D1E012EBC60605EB460202F5816236
:104CA0001760B0F850200E7802EBC60205EB420503
:104CB00005F20C450A693F2A16460AD3760912F016
:104CC0001F0F00D1761EB60246F40046B6B22E6023
:104CD00006E07608D20700D5761CB602B6B22E6082
:104CE0000A7830F822506D0408D530F822502C4054
:104CF00044F4404444F0800420F822400A7830F81C
:104D000022404BF68F710C4084F44054234320F82A
:104D1000223091E030F82620224042F4014242F055
:104D2000800220F82620B0F850200E7802EBC60250
:104D300005EB420202F58062CE88760876001660A6
:104D4000B0F850200E7802EBC60205EB420505F5DF
:104D500081650A89520852002A600D784A78002A33
:104D600030F8252033D1520408D530F825202240D0
:104D700042F4404242F0800220F825200A7848F2AE
:104D8000C00530F82260760605D530F8226026404E
:104D90002E4320F822600A7830F8226034402C43F9
:104DA00020F822400C7830F824504BF68F721540D2
:104DB00085F440551D4320F824500A7830F82240ED
:104DC00048F6BF710C40234320F8223034E05204EF
:104DD00008D530F82520224042F4404242F08002BB
:104DE00020F825200A7830F822506D0608D530F8D2
:104DF0002250254045F4004545F0C00520F82250DA
:104E00000A7830F822502C4044F4404444F08004A6
:104E100020F822400C7830F8245048F6BF72154034
:104E20001D4320F824500A7830F822404BF68F7149
:104E30000C40234320F822300020F0BC704730B4EF
:104E400002460D78487848F68F748B7A002B33D160
:104E5000002832F8250017D0400608D532F8250082
:104E6000044044F4004444F0C00422F8254009788A
:104E700032F8213048F6BF70034043F4004343F05A
:104E8000800322F8213086E0400408D532F825005E
:104E9000044044F4404444F0800422F8254009785A
:104EA00032F821304BF68F70034043F4004343F057
:104EB000800322F821306EE0002832F8250033D13B
:104EC000400408D532F82500204040F4404040F02E
:104ED000800022F82500087848F2C00332F82050FC
:104EE0006D0605D532F8205025401D4322F820508C
:104EF000087832F820502C401C4322F820400C78CF
:104F000032F824504BF68F70054048F280031D4361
:104F100022F82450097832F8214048F6BF70044046
:104F2000234322F8213036E0400408D532F825002A
:104F3000204040F4404040F0800022F825000878EE
:104F400032F820305B0608D532F82030234043F495
:104F5000004343F0C00322F82030087832F82030B4
:104F60001C4044F4404444F0800422F820400C7873
:104F700032F8245048F6BF70054048F280031D43C4
:104F800022F82450097832F821404BF68F70044003
:104F9000234322F82130002030BC704770B504460E
:104FA0000D46A869064629696A78012A40F0B08052
:104FB000814203D20E46801BA86101E00020A86157
:104FC000A87A002811D133469BB2AA886969204685
:104FD00000F0B1F9B4F85000297800EBC10004EBFF
:104FE000400000F20440066083E0104629780A463B
:104FF00034F8222052062CD500281DD1B4F85000D8
:1050000000EBC10004EB400000F20C403F2E3146A3
:105010000AD3490916F01F0F00D1491E890241F435
:10502000004189B2016012E04908F20700D5491C2D
:10503000890289B201600AE0012808D1B4F8500061
:1050400000EBC10004EB400000F2044006602A8936
:105050002BE000281DD1B4F8500000EBC10004EB98
:10506000400000F204403F2E31460AD3490916F0B1
:105070001F0F00D1491E890241F4004189B201602D
:1050800012E04908F20700D5491C890289B2016083
:105090000AE0012808D1B4F8500000EBC10004EB8D
:1050A000400000F204400660EA8833469BB269691A
:1050B000204600F040F9687800280CD1297834F8AF
:1050C000212048F68F70024042F4004242F0C002B4
:1050D00024F821200DE001280BD1297834F8212073
:1050E00048F68F70024042F4404242F0800224F8B9
:1050F0002120297834F8212048F6BF70024082F040
:10510000300242F4004242F0800224F8212093E071
:10511000814203D20E46801BA86101E00020A861F5
:10512000A87A00281ED1B4F85000297800EBC100FD
:1051300004EB400000F20C403F2E31460AD34909EF
:1051400016F01F0F00D1491E890241F4004189B2B7
:10515000016063E04908F20700D5491C890289B261
:1051600001605BE0104600281ED1B4F85000297899
:1051700000EBC10004EB400000F204403F2E31463A
:105180000AD3490916F01F0F00D1491E890241F4C4
:10519000004189B2016013E04908F20700D5491CBB
:1051A000890289B201600BE0012809D1B4F85000EE
:1051B000297800EBC10004EB400000F204400660D7
:1051C000687800281ED1B4F85000297800EBC1009F
:1051D00004EB400000F20C403F2E31460AD349094F
:1051E00016F01F0F00D1491E890241F4004189B217
:1051F000016013E04908F20700D5491C890289B211
:1052000001600BE0012809D1B4F85000297800EBC7
:10521000C10004EB400000F204400660297834F835
:1052200021204BF68F70024082F4405242F400423B
:1052300042F0800224F82120002070BD10B40A78CA
:10524000130048F280040CD130F823204BF6BF71D4
:105250000A4082F4805282F01002144320F8234066
:1052600015E04978002930F8232008D048F6BF71AE
:105270000A4082F01002144320F8234007E04BF666
:105280008F710A4082F48052144320F8234000209A
:1052900010BC704710B40B784A78002A30F82320ED
:1052A0001BD052060AD530F8234048F68F721440BE
:1052B00044F4004444F0C00420F823400A7830F855
:1052C000223048F6BF710B4083F0300343F40043B3
:1052D00043F0800320F822301AE052040AD530F857
:1052E000234048F68F72144044F4404444F0800454
:1052F00020F823400A7830F822304BF68F710B40AB
:1053000083F4405343F4004343F0800320F82230F9
:10531000002010BC7047002902D18021A0F84C1059
:10532000002070470020704700207047B0F844000C
:1053300070470020704710B400EB420000F5806019
:105340005B1C5B1007E00A784C7842EA042220F8E4
:10535000042B891C5B1EF6D110BC704700EB420089
:1053600000F580605B1C5B1004E050F8042B21F812
:10537000022B5B1EF9D1704778B585B00446002634
:10538000002C01D1012051E004F5856568780028E2
:1053900004D130462870204600F09EFB0320687040
:1053A0002068FFF7F1FB211D83B068462022FEF73D
:1053B000F9F80EBC2068FFF7DBFB31462068FFF7E9
:1053C000ECFB0CE004EB4610283001214170067024
:1053D00086810021C170016141618161761C0F2EBF
:1053E000F0D300200DE004EB401101F50A72002318
:1053F0005370107088861946D170116151619161A6
:10540000401C0F28EFD3211D83B068462022FEF7F1
:10541000C9F80EBC2068FFF7C2FB002084F8240006
:10542000012068702068FFF77FFF002006B070BD84
:1054300010B5044694F82804012801D1022010BDBB
:10544000012084F828040146204600F07AFC2068F8
:10545000FFF768FF2068FFF78FFB002084F828041F
:1054600010BD10B504462068FFF760FF000402D5A8
:10547000204600F07EF92068FFF758FF40050ED562
:105480002168B1F844204FF6FF300240A1F84420D3
:10549000204600F056FB0021204600F07BF82068F3
:1054A000FFF744FF400407D52168B1F844204BF6CC
:1054B000FF700240A1F844202068FFF737FF800406
:1054C00007D52168B1F844204DF6FF700240A1F8DD
:1054D00044202068FFF72AFFC0041AD52168B1F8DC
:1054E00040204FF6FB700240A1F840202168B1F83F
:1054F00040204FF6F7700240A1F84020204600F00F
:105500003CFB2168B1F844204EF6FF700240A1F840
:1055100044202068FFF70AFF00051DD52068B0F879
:10552000401041F00801A0F840102168B1F8442073
:105530004FF2FF700240A1F844202068B0F84010FC
:1055400041F00401A0F840102068FFF7EFFEC0040E
:1055500002D4204600F002FB2068FFF7E7FE80053A
:105560000AD52168B1F844204FF6FF500240A1F857
:105570004420204600F0E1FA2068FFF7D7FEC0057E
:1055800007D52168B1F844204FF6FF600240A1F82A
:10559000442010BD10B5044694F82804012801D118
:1055A000022010BD012084F8280484F8241020680B
:1055B000FFF7B1FE002084F8280410BD38B504467A
:1055C000084600F07F0004EB40100D0601D528309E
:1055D00001E000F50A7001F07F050570C90941700E
:1055E0000261C37094F82814012901D1022032BD50
:1055F000012184F8281401462068FFF7DFFA002013
:1056000084F8280432BD10B50446084600F07F0037
:1056100004EB40100A0601D5283001E000F50A70BD
:1056200001F07F020270C909417094F82814012921
:1056300001D1022010BD012184F828140146206800
:10564000FFF7FDFB002084F8280410BD10B50C46C0
:1056500004F07F0400EB441404F50A746261A36152
:105660000022E261627011F07F0121700068214622
:1056700002D1FFF793FC01E0FFF790FC002010BD82
:1056800001F00F0100EB4110D0F8440280B27047E6
:1056900010B50C4604F07F0400EB4414283462611A
:1056A000A3610022E2610122627011F07F0121708A
:1056B0000068214602D1FFF771FC01E0FFF76EFCA4
:1056C000002010BD38B505460C462046210605D5FC
:1056D00000F07F0105EB4111283104E0214605EB84
:1056E000411101F50A7101228A7004F07F040C70E7
:1056F000C009487095F82804012801D1022032BD64
:10570000104685F828042868FFF798FD002C04D17E
:1057100005F22C412868FFF70CFE002085F82804CC
:1057200032BD10B504460A46080605D502F07F00D2
:1057300004EB4010283004E0084604EB401000F56C
:105740000A700023837001F07F010170D20942705A
:1057500094F82814012901D1022010BD012184F8F8
:10576000281401462068FFF795FD002084F82804DE
:1057700010BDF8B50021ADF80010ADF800100446DA
:1057800029E0018848F60F721140018004F12405D8
:105790002068B0F850102A7901EBC20100EB4100FB
:1057A00000F204400068C0F309002862A9690844B7
:1057B000A8610021204600F0B8F9287800280AD016
:1057C000E869002807D1287840F080002168A1F816
:1057D0004C0000202870206800F144010A88ADF8D0
:1057E0000020120440F17581BDF8005015F00F053E
:1057F0007AD1BDF80020D206C3D50288ADF80020CA
:10580000BDF8002012051DD504F50A7289891378A8
:1058100001EBC30100EB410000F20C400368C3F34D
:105820000903D361928804F22C412068FFF796FDAA
:105830002068018840F68F7211400180204600F0F8
:1058400065F9C8E7BDF800100904C4D5018840F621
:105850008F7211400180206804F50A75B0F850106D
:105860002A7801EBC20100EB410000F20C40036812
:10587000C3F30903002BEB6108D0AA88696920688B
:10588000FFF76CFD6869E9690844686100212046FA
:1058900000F042F92068B0F8501000EB410000F22F
:1058A0000C4029693F290A460AD3520911F01F0FFB
:1058B00000D1521E920242F4004292B2026006E00F
:1058C0005208C90700D5521C920292B202602068A9
:1058D00001884BF68F72114081F4405141F4004130
:1058E00041F08001018076E730F82510ADF8001016
:1058F000BDF8001009046ED530F8251040F68F72FF
:10590000114020F8251004EB451000F50A76327896
:10591000134620680746B17A002912D1B0F850101A
:1059200011EBC30307EB430707F20C473F68C7F3CC
:105930000907002F39D03B46B2887169FFF70EFD89
:1059400033E030F822104904B0F8501010D511EBB4
:10595000C30307EB430707F204473F68C7F3090790
:10596000002F15D03B46F2887169FFF7F7FC0FE076
:1059700011EBC30307EB430707F20C473F68C7F37C
:105980000907002F04D03B4632897169FFF7E6FC16
:105990003078216831F8202048F68F731A4042F49D
:1059A000004242F0C00221F820203846F169411837
:1059B000F1617169CA197261B369002B02D0316952
:1059C000884204D23178204600F0A6F803E031780E
:1059D0002046FFF73BFEBDF8000000067FF5FBAE5A
:1059E00004EB451000F12806206830F8251048F631
:1059F0000F72114020F8251031780A4623681D46A1
:105A0000B07A002813D1B3F8500010EBC20205EBB6
:105A1000420505F204452B68C3F30903002BF3612B
:105A20003BD0B28871692068FFF785FC35E033F818
:105A300021004006B3F8500011D510EBC20205EB6F
:105A4000420505F204452B68C3F30903002BF361FB
:105A500016D0F28871692068FFF76DFC10E010EB3A
:105A6000C20205EB420505F20C452B68C3F309039E
:105A7000002BF36104D0328971692068FFF75BFC69
:105A80003078216831F8202048F68F731A4042F4AC
:105A9000404242F0800221F820202068B0F85010E7
:105AA000327801EBC20100EB410000F204400068D3
:105AB000C0F30900F06171690A187261B369317845
:105AC000002B204602D100F030F884E6FFF7E0FD1D
:105AD00081E60020F2BD000000689349884200D0B2
